:020000040000FA
:0200000037289F
:040002000034003492
:08000800AA00030EA9000B1D64
:1000100018280B11240882070F281528A40107149B
:10002000810122088102A40A182807108101A40A6C
:100030000C1F32280C1328088207212826282B2879
:10004000A8011E08A5009F111F1530281E08A60034
:100050009F151F1130281E08A7009F111F1130285F
:0E006000A80A9F14290E8300AA0E2A0E09007A
:02006E00031776
:100070008316073088008112811101118114011447
:100080000313FF30850087018B170B170C17FF3008
:1000900092009F0183120B1181018B160C30970087
:1000A0009D000630920041309F0085018701A90123
:1000B000AA01A501A601A701A201A801A001A10111
:1000C0009F1425086E202308950026086E2023081B
:1000D0009B0027086E202308A2006128A3000310BC
:1000E000A30C1F30A3070800831203138030A10064
:0600F000A10B78280800B6
:02400E00D420BC
:02401000FF3F70
:00000001FF
