:020000040000FA
:020000002C28AA
:040002000034003492
:08000800A700030EA6000C1F67
:1000100026280C1325088207102815281B28A5015F
:100020001E08A200A50A1F1520281E08A300A50A65
:100030009F151F1120281E08A400A50A9F11202823
:10004000000000000000000000009F14260E830046
:08005000A70E270E8B17090013
:08005800031783168801081448
:10006000881408150313FF30850087019F139F1222
:100070001F128B170B170C17831241309F000C13A4
:1000800085018701A601A701A201A301A401A50181
:10009000A001A1019F144B28831203138030A100FB
:0600A000A10B502808002E
:02400E00D420BC
:02401000FF3F70
:00000001FF
