:020000040000FA
:02000000652871
:040002000034003492
:08000800BA00030EBB00040E58
:10001000BC000B1D1A280B1139088207112817285C
:10002000B9010714380881018102B90A1A2807109A
:100030008101B90A0C1F33280C13250882072328D5
:1000400028282D28A5011E08A2009F111F15312860
:100050001E08A3009F151F1131281E08A4009F1120
:100060001F11A50A9F143B0E83003C0E8400BA0E9C
:100070003A0E09000C1E0800290882074B284D285B
:100080004F285D285128532855285D28572859287E
:100090005B285F28A901300861282F0861282E08F5
:1000A0006128330861283208612831086128360840
:1000B000612835086128340861282C3062280A300C
:0A00C0006228303E9900A90A0800EA
:0600CA00831303178316E7
:1000D00007308800890181128111011181140114F6
:1000E0000313FF30850087018B170B170C178C1635
:1000F000FF3092009F011813981618121815193026
:10010000990083129817181318160B1181018B167A
:100110000C3097009D000630920041309F00A201F4
:10012000A301A401A501A901B901AA01AB01AC0178
:10013000AD01AE01AF01B001B101B201B301B40133
:10014000B501B6019F142208A6002308A7002408C1
:10015000A80022308400EA2037089500233084006C
:10016000EA2037089B0024308400EA203708B800D2
:100170002608AA002E308400C9202708AA003130A2
:100180008400C9202808AA0034308400C9203A20FD
:10019000A328AB01AC01AD0164302A02031CD328B3
:1001A000AD0AAA00CC280A302A02031CDA28AC0ABD
:1001B000AA00D32801302A02031CE128AB0AAA00B6
:1001C000DA282B088000840A2C088000840A2D0875
:1001D0008000080083130310000C1F3EB7000800C6
:02400E00D420BC
:02401000FF3F70
:00000001FF
