:020000040000FA
:02000000AC282A
:040002000034003492
:08000800CB00030ECC00040E36
:10001000CD000B1D1A280B114A088207112817283A
:10002000CA010714490881018102CA0A1A28071067
:100030008101CA0A8C1E61281A08BC003D08FF3CD9
:1000400003194A28BC0A3D088207282831283A2883
:100050003C083F303B07840030303C028000BB0A44
:1000600042283C0842303B07840030303C0280008C
:10007000BB0A42283C0845303B07840030303C0234
:100080008000BB0A3B08023C031D6128FF30BB0116
:10009000BD0061283C08493C031D51280030BD00CB
:1000A00061283C08443C031D58280130BD006128EC
:1000B0003C08433C031D5F280230BD006128FF302F
:1000C000BD000C1F7A280C13260882076A286F28A7
:1000D0007428A6011E08A3009F111F1578281E086A
:1000E000A4009F151F1178281E08A5009F111F113D
:1000F000A60A9F144C0E83004D0E8400CB0E4B0EAF
:1001000009000C1E08002A088207922894289628C5
:10011000A42898289A289C28A4289E28A028A228A9
:10012000A628AA013108A8283008A8282F08A8283E
:100130003408A8283308A8283208A8283708A8288F
:100140003608A8283508A8282C30A9280A30A9285C
:08015000303E9900AA0A0800E4
:0801580083130317831607301F
:100160008800890181128111011181140114031386
:10017000FF308500870188018B170B170C178C1631
:10018000FF3092009F011813981618121815193095
:10019000990083129817181318160B1181018B16EA
:1001A0000C3097009D000630920041309F00A00166
:1001B000A301A401A501A601AA01CA01AB01B801CE
:1001C000B901BA01BB01BC01BD01BE01AC01AD0169
:1001D000AE01AF01B001B101B201B301B401B5018B
:1001E000B601B701BF01C001C101C201C301C40111
:1001F000C501C601C7019F140508A200A21D03295D
:10020000842185190129A01C19290629A014881404
:1002100008103F30840042213E08A700423084008D
:1002200042213E08A8004530840042213E08A90032
:100230002229A010081488102308A7002408A80069
:100240002508A900273084007E2148089500283021
:1002500084007E2148089B00293084007E214808C4
:10026000C9002708AB002F3084005D212808AB00AF
:10027000323084005D212908AB00353084005D21D7
:100280008120FC280008B800840A0008B900840A0C
:100290000008BA00BE016430B80B4F295129BE07CF
:1002A0004B290A30B90B55295729BE07512901306E
:1002B000BA0B5B290800BE075729AC01AD01AE019E
:1002C00064302B02031C6729AE0AAB0060290A3098
:1002D0002B02031C6E29AD0AAB00672901302B02EB
:1002E000031C7529AC0AAB006E292C088000840A17
:1002F0002D088000840A2E08800008008313031054
:10030000000C1F3EC8000800C830A100A10B8629C0
:020310000800E3
:02400E00D420BC
:02401000FF3F70
:00000001FF
