:020000040000FA
:020000003F2897
:040002000034003492
:08000800AA00030EA9000C1F61
:100010000C280B1D232839280C13280882071328C5
:1000200018281E28A8011E08A500A80A1F15332895
:100030001E08A600A80A9F151F1133281E08A70036
:10004000A80A9F1133280B112408820729282F287A
:10005000A4018715810122088102A40A3928871189
:100060008101A40A392800000000000000000000FF
:0E0070009F14290E8300AA0E2A0E8B1709007A
:02007E00031766
:10008000831688010814881408150313FF308500AF
:100090008701FF3092008112811101118114011436
:1000A0008B170B178B160C179F139F121F1283129F
:1000B00041309F000C138C1012159214850187019A
:1000C000A901AA01A501A601A701A201A801A001F9
:1000D000A1019F142508950026089B00270872207F
:1000E000A2006A28A3000310230C613E08008312BB
:0C00F00003138030A100A10B7B28080046
:02400E00D420BC
:02401000FF3F70
:00000001FF
