:020000040000FA
:020000003A289C
:040002000034003492
:08000800A900030EAA00040E7A
:10001000AB000B1D1A280B1128088207112817287E
:10002000A8010714270881018102A80A1A280710CD
:100030008101A80A0C1F33280C13230882072328E8
:1000400028282D28A3011E08A0009F111F15312864
:100050001E08A1009F151F1131281E08A2009F1124
:100060001F11A30A9F142A0E83002B0E8400A90ED1
:04007000290E09004C
:0C007400831303178316073088008901EE
:10008000811281110111811401140313FF308500C5
:1000900087018B170B170C17FF3092009F018312FB
:1000A0000B1181018B160C3097009D0006309200D9
:1000B00041309F00A001A101A201A301A8019F144A
:1000C00020308400702026089500213084007020A4
:1000D00026089B002230840070202608A700602894
:0C00E00083130310000C1F3EA600080054
:02400E00D420BC
:02401000FF3F70
:00000001FF
